{
  "contractName": "Fund",
  "abi": [
    {
      "constant": true,
      "inputs": [
        {
          "name": "",
          "type": "uint256"
        }
      ],
      "name": "funders",
      "outputs": [
        {
          "name": "",
          "type": "address"
        }
      ],
      "payable": false,
      "stateMutability": "view",
      "type": "function",
      "signature": "0xdc0d3dff"
    },
    {
      "constant": false,
      "inputs": [
        {
          "name": "projectId",
          "type": "uint256"
        }
      ],
      "name": "back",
      "outputs": [
        {
          "name": "",
          "type": "uint256"
        }
      ],
      "payable": false,
      "stateMutability": "nonpayable",
      "type": "function",
      "signature": "0x4a562885"
    },
    {
      "constant": true,
      "inputs": [],
      "name": "getFunders",
      "outputs": [
        {
          "name": "",
          "type": "address[16]"
        }
      ],
      "payable": false,
      "stateMutability": "view",
      "type": "function",
      "signature": "0xea63a044"
    }
  ],
  "bytecode": "0x608060405234801561001057600080fd5b506102f4806100206000396000f3fe608060405260043610610057576000357c0100000000000000000000000000000000000000000000000000000000900463ffffffff1680634a5628851461005c578063dc0d3dff146100ab578063ea63a04414610126575b600080fd5b34801561006857600080fd5b506100956004803603602081101561007f57600080fd5b8101908080359060200190929190505050610179565b6040518082815260200191505060405180910390f35b3480156100b757600080fd5b506100e4600480360360208110156100ce57600080fd5b81019080803590602001909291905050506101ee565b604051808273ffffffffffffffffffffffffffffffffffffffff1673ffffffffffffffffffffffffffffffffffffffff16815260200191505060405180910390f35b34801561013257600080fd5b5061013b610223565b6040518082601060200280838360005b8381101561016657808201518184015260208101905061014b565b5050505090500191505060405180910390f35b600080821015801561018c5750600f8211155b151561019757600080fd5b336000836010811015156101a757fe5b0160006101000a81548173ffffffffffffffffffffffffffffffffffffffff021916908373ffffffffffffffffffffffffffffffffffffffff160217905550819050919050565b6000816010811015156101fd57fe5b016000915054906101000a900473ffffffffffffffffffffffffffffffffffffffff1681565b61022b6102a4565b600060108060200260405190810160405280929190826010801561029a576020028201915b8160009054906101000a900473ffffffffffffffffffffffffffffffffffffffff1673ffffffffffffffffffffffffffffffffffffffff1681526020019060010190808311610250575b5050505050905090565b6102006040519081016040528060109060208202803883398082019150509050509056fea165627a7a723058200c50872a106bc125401da2d6a8a7a9409eb75e220ea2daa680d7dc17f00375fd0029",
  "source": "pragma solidity ^0.5.0;\n\ncontract Fund {\n  address[16] public funders;\n\n  //Backing a project\n  function back(uint projectId) public returns (uint) {\n      require(projectId >= 0 && projectId <= 15);\n\n      funders[projectId] = msg.sender;\n\n      return projectId;\n  }\n\n  //Retrieving the funders\n  function getFunders() public view returns (address[16] memory) {\n      return funders;\n  }\n}\n",
  "sourcePath": "/Users/Audrey/Documents/GitHub/fundme/contracts/Fund.sol",
  "compiler": {
    "name": "solc",
    "version": "0.5.0+commit.1d4f565a.Emscripten.clang"
  },
  "schemaVersion": "3.0.8",
  "updatedAt": "2020-01-28T04:55:22.146Z",
  "devdoc": {
    "methods": {}
  },
  "userdoc": {
    "methods": {}
  }
}